:020000040800F2
:100000000000012009210008891E0008971E000831
:100010009D1E0008A31E0008A91E00080000000085
:10002000000000000000000000000000AF1E0008FB
:10003000BD1E000800000000CB1E0008D91E0008ED
:1000400059210008592100085921000859210008A8
:100050005921000859210008592100085921000898
:100060005921000859210008592100085921000888
:100070005921000859210008592100085921000878
:100080005921000859210008592100085921000868
:100090005921000859210008592100085921000858
:1000A0005921000859210008592100085921000848
:1000B0005921000859210008592100085921000838
:1000C0005921000859210008592100085921000828
:1000D0005921000859210008E91E0008592100088B
:1000E0005921000859210008592100085921000808
:1000F00059210008592100085921000859210008F8
:1001000059210008000000000000000059210008EB
:1001100059210008592100085921000859210008D7
:1001200059210008592100085921000859210008C7
:1001300059210008592100080000000000000000BB
:100140005921000859210008592100080000000029
:10015000000000000000000000000000000000009F
:100160005921000859210008592100085921000887
:100170005921000859210008592100085921000877
:10018000592100085921000800000000000000006B
:0401900059210008E9
:1001940010B5054C237833B9044B13B10448AFF3BD
:1001A40000800123237010BD040000200000000023
:1001B400BC21000808B5034B1BB103490348AFF346
:1001C400008008BD0000000008000020BC210008D9
:1001D40080B483B000AF7860054B1A6804497B682B
:1001E40013430B6000BF0C37BD465DF8047B7047BA
:1001F4000004014080B483B000AF7860054B1A6AF4
:1002040004497B6813430B6200BF0C37BD465DF89D
:10021400047B70470004014080B483B000AF786071
:10022400064B1A687B68DB43044913400B6000BF2C
:100234000C37BD465DF8047B704700BF00040140E5
:1002440080B483B000AF7860064B1A6A7B68DB43E6
:10025400044913400B6200BF0C37BD465DF8047BB4
:10026400704700BF0004014080B483B000AF7860E1
:10027400054B5A6804497B6813434B6000BF0C3735
:10028400BD465DF8047B70470004014080B483B030
:1002940000AF7860054B5A6A04497B6813434B628C
:1002A40000BF0C37BD465DF8047B70470004014075
:1002B40080B483B000AF7860064B5A687B68DB4338
:1002C400044913404B6000BF0C37BD465DF8047B06
:1002D400704700BF0004014080B483B000AF786071
:1002E400064B5A6A7B68DB43044913404B6200BFE8
:1002F4000C37BD465DF8047B704700BF0004014025
:1003040080B483B000AF7860054B9A6804497B6879
:1003140013438B6000BF0C37BD465DF8047B704708
:100324000004014080B483B000AF7860054B9A6A42
:1003340004497B6813438B6200BF0C37BD465DF8EC
:10034400047B70470004014080B483B000AF786040
:10035400064B9A687B68DB43044913408B6000BFFB
:100364000C37BD465DF8047B704700BF00040140B4
:1003740080B483B000AF7860064B9A6A7B68DB4335
:10038400044913408B6200BF0C37BD465DF8047B03
:10039400704700BF0004014080B483B000AF7860B0
:1003A400054BDA6804497B681343CB6000BF0C3704
:1003B400BD465DF8047B70470004014080B483B0FF
:1003C40000AF7860054BDA6A04497B681343CB625B
:1003D40000BF0C37BD465DF8047B70470004014044
:1003E40080B483B000AF7860064BDA687B68DB4387
:1003F40004491340CB6000BF0C37BD465DF8047B55
:10040400704700BF0004014080B483B000AF78603F
:10041400064BDA6A7B68DB4304491340CB6200BFB6
:100424000C37BD465DF8047B704700BF00040140F3
:1004340080B584B000AF78600023FB737B681B7ABF
:10044400002B00F0C2807B681B68002B5BD07B68AC
:100454005B7A012B0ED0022B17D0002B20D17B68A6
:100464001B681846FFF724FF7B681B681846FFF7D4
:10047400AFFE18E07B681B681846FFF7CDFE7B686B
:100484001B681846FFF7F0FE0DE07B681B681846F2
:10049400FFF79EFE7B681B681846FFF7E5FE02E047
:1004A4000123FB7300BF7B689B7A002B2BD07B68F6
:1004B4009B7A022B0ED0032B17D0012B20D17B6803
:1004C4001B681846FFF78CFF7B681B681846FFF70C
:1004D40017FF19E07B681B681846FFF735FF7B6838
:1004E4001B681846FFF758FF0EE07B681B68184628
:1004F400FFF706FF7B681B681846FFF74DFF03E014
:100504000123FB7300E000BF7B685B68002B71D0A4
:100514007B685B7A012B0ED0022B17D0002B20D1E5
:100524007B685B681846FFF7D7FE7B685B681846F4
:10053400FFF760FE18E07B685B681846FFF780FEF3
:100544007B685B681846FFF7A1FE0DE07B685B687B
:100554001846FFF74FFE7B685B681846FFF796FE68
:1005640002E00123FB7300BF7B689B7A002B41D020
:100574007B689B7A022B0ED0032B17D0012B20D142
:100584007B685B681846FFF73FFF7B685B6818462B
:10059400FFF7C8FE2FE07B685B681846FFF7E8FEAC
:1005A4007B685B681846FFF709FF24E07B685B689B
:1005B4001846FFF7B7FE7B685B681846FFF7FEFE38
:1005C40019E00123FB7300BF15E07B681B68184624
:1005D400FFF722FE7B681B681846FFF769FE7B68FD
:1005E4005B681846FFF72CFE7B685B681846FFF7CC
:1005F40073FE00E000BFFB7B18461037BD4680BD8C
:1006040080B489B000AFF860B9607A60FB681A689A
:10061400BB687B617B6993FAA3F33B613B69B3FAE3
:1006240083F3DBB25B00032101FA03F3DB431A40DB
:10063400BB68FB61FB6993FAA3F3BB61BB69B3FAC3
:1006440083F3DBB25B00796801FA03F31A43FB68B6
:100654001A6000BF2437BD465DF8047B704780B440
:1006640085B000AFF860B9607A60FB685A68BB680F
:10067400DB431A40BB68796801FB03F31A43FB6848
:100684005A6000BF1437BD465DF8047B704780B4E0
:1006940089B000AFF860B9607A60FB689A68BB689B
:1006A4007B617B6993FAA3F33B613B69B3FA83F300
:1006B400DBB25B00032101FA03F3DB431A40BB689E
:1006C400FB61FB6993FAA3F3BB61BB69B3FA83F3E0
:1006D400DBB25B00796801FA03F31A43FB689A60A2
:1006E40000BF2437BD465DF8047B704780B489B0F1
:1006F40000AFF860B9607A60FB68DA68BB687B6158
:100704007B6993FAA3F33B613B69B3FA83F3DBB2EE
:100714005B00032101FA03F3DB431A40BB68FB616E
:10072400FB6993FAA3F3BB61BB69B3FA83F3DBB24E
:100734005B00796801FA03F31A43FB68DA6000BFCF
:100744002437BD465DF8047B704780B489B000AFA0
:10075400F860B9607A60FB681A6ABB687B617B6980
:1007640093FAA3F33B613B69B3FA83F3DBB29B00D7
:100774000F2101FA03F3DB431A40BB68FB61FB69F9
:1007840093FAA3F3BB61BB69B3FA83F3DBB29B00B7
:10079400796801FA03F31A43FB681A6200BF24372D
:1007A400BD465DF8047B704780B489B000AFF86043
:1007B400B9607A60FB685A6ABB681B0A7B617B6913
:1007C40093FAA3F33B613B69B3FA83F3DBB29B0077
:1007D4000F2101FA03F3DB431A40BB681B0AFB61D8
:1007E400FB6993FAA3F3BB61BB69B3FA83F3DBB28E
:1007F4009B00796801FA03F31A43FB685A6200BF4D
:100804002437BD465DF8047B704780B588B000AFDF
:10081400786039603B681B687B617B6993FAA3F35A
:100824003B613B69B3FA83F3DBB2FB6149E03B68AC
:100834001A680121FB6901FA03F31340BB61BB6928
:10084400002B3BD03B685B681A46B9697868FFF7B0
:10085400D7FE3B685B68012B03D03B685B68022BC7
:1008640006D13B689B681A46B9697868FFF70FFFA1
:100874003B681B691A46B9697868FFF737FF3B681C
:100884005B68022B1AD1BB69FB60FB6893FAA3F384
:10089400BB60BB68B3FA83F3DBB2072B07D83B68B2
:1008A4005B691A46B9697868FFF74FFF06E03B6851
:1008B4005B691A46B9697868FFF776FFFB6901330B
:1008C400FB613B681A68FB6922FA03F3002BAED183
:1008D4003B685B68012B03D03B685B68022B07D144
:1008E4003B6819683B68DB681A467868FFF7B7FE0F
:1008F400002318462037BD4680BD000080B400AFF9
:10090400064B1B6803F00203022B0CBF01230023D8
:10091400DBB21846BD465DF8047B70470010024008
:1009240080B400AF064B1B6A03F00203022B0CBF1A
:1009340001230023DBB21846BD465DF8047B7047F3
:100944000010024080B400AF044B5B6803F00C035A
:100954001846BD465DF8047B704700BF0010024096
:1009640080B400AF044B5B6803F0F0031846BD4647
:100974005DF8047B704700BF0010024080B400AFF4
:10098400044B5B6803F4E0631846BD465DF8047BE2
:10099400704700BF0010024080B400AF044B5B6896
:1009A40003F460531846BD465DF8047B704700BFEE
:1009B4000010024080B483B000AF7860074B1A6B1C
:1009C40003217B6801FA03F31A407B681B06134377
:1009D40018460C37BD465DF8047B70470010024092
:1009E40080B483B000AF7860064B1A6B7B681A4002
:1009F4007B681B0A134318460C37BD465DF8047B1D
:100A0400704700BF0010024080B400AF044B5B6825
:100A140003F4C0331846BD465DF8047B704700BF3D
:100A24000010024080B400AF044B5B6803F4701301
:100A34001846BD465DF8047B704700BF00100240B5
:100A440080B400AF044BDB6A03F00F031846BD46C5
:100A54005DF8047B704700BF0010024080B584B08D
:100A640000AF78600023FB607B68002B2AD1786894
:100A7400FFF7A0FF0346022B0FD0032B05D0012B59
:100A840014D100F02BF9F86021E0FFF737FF03469B
:100A9400002B19D0464BFB6016E0FFF741FF0346DD
:100AA400002B13D04FF40043FB600FE000F016F965
:100AB4000346184600F034F90346184600F05AF984
:100AC400F86004E000BF02E000BF00E000BF7B6804
:100AD400102B2DD17868FFF76DFF0346354A9342FA
:100AE40011D0354A934206D0344A934214D100F0CF
:100AF400F5F8F86021E0FFF701FF0346002B19D059
:100B04002B4BFB6016E0FFF70BFF0346002B13D0C3
:100B14004FF40043FB600FE000F0E0F80346184692
:100B240000F0FEF80346184600F010F9F86004E0FF
:100B340000BF02E000BF00E000BF7B68122B2DD194
:100B44007868FFF737FF03461D4A934211D01D4AC8
:100B5400934206D01C4A934214D100F0BFF8F860C7
:100B640021E0FFF7CBFE0346002B19D0104BFB60AE
:100B740016E0FFF7D5FE0346002B13D04FF40043D5
:100B8400FB600FE000F0AAF80346184600F0C8F82E
:100B94000346184600F0DAF8F86004E000BF02E00B
:100BA40000BF00E000BFFB6818461037BD4680BD9B
:100BB40000127A000000021000000310000001106F
:100BC4000000081200000C120000041280B584B06A
:100BD40000AF78600023FB607B68B3F5401F2DD124
:100BE4007868FFF7FDFE0346354A934211D0354A33
:100BF400934206D0344A934214D100F06FF8F8605F
:100C040021E0FFF77BFE0346002B19D02F4BFB603E
:100C140016E0FFF785FE0346002B13D04FF4004384
:100C2400FB600FE000F05AF80346184600F078F82D
:100C34000346184600F08AF8F86004E000BF02E0BA
:100C440000BF00E000BF7B68B3F5400F2DD178688A
:100C5400FFF7C6FE03461E4A934211D01D4A934233
:100C640006D01D4A934214D100F038F8F86021E010
:100C7400FFF744FE0346002B19D0144BFB6016E02B
:100C8400FFF74EFE0346002B13D04FF40043FB60E6
:100C94000FE000F023F80346184600F041F803463D
:100CA400184600F053F8F86004E000BF02E000BF0B
:100CB40000E000BFFB6818461037BD4680BD00BF8A
:100CC40000302000003030000030100000127A00A4
:100CD40000C0800000C0C00000C0400080B582B0E9
:100CE40000AF00237B60FFF72DFE0346042B06D0E4
:100CF400082B07D0002B09D1084B7B6009E0074B78
:100D04007B6006E000F04AF8786002E0034B7B6009
:100D140000BF7B6818460837BD4680BD00127A00C4
:100D240080B582B000AF7860FFF71AFE03461B0956
:100D340003F00F03044AD35C1A467B68D340184679
:100D44000837BD4680BD00BFE421000880B582B0ED
:100D540000AF7860FFF712FE03461B0A044AD35C17
:100D64001A467B68D34018460837BD4680BD00BF8D
:100D7400F421000880B582B000AF7860FFF70CFE64
:100D84000346DB0A044AD35C1A467B68D340184600
:100D94000837BD4680BD00BFF421000890B585B07A
:100DA40000AF0023FB600023BB60FFF72DFEB8609B
:100DB400BB68B3F5004F03D0B3F5803F03D005E023
:100DC400144BFB6005E0134BFB6002E0114BFB602E
:100DD40000BFFFF735FE034603F00F030133FA6843
:100DE400B2FBF3F4FFF71EFE034603F470134FF453
:100DF40070127A607A6892FAA2F23A603A68B2FAA9
:100E040082F2D2B2D340023303FB04F31846143700
:100E1400BD4690BD00127A0080B483B000AF786004
:100E24007B681B6803F00103012B01D1012300E05F
:100E3400002318460C37BD465DF8047B704780B428
:100E440083B000AF786039607B685B6823F44052FC
:100E54003B681A437B685A6000BF0C37BD465DF897
:100E6400047B704780B483B000AF786039607B68DE
:100E74009B6823F440723B681A437B689A6000BF06
:100E84000C37BD465DF8047B704790B486B000AF64
:100E9400F860B9607A603B607B68B3F5004F16D1A7
:100EA400BB685A003B685B081A443B68B2FBF3F327
:100EB4009BB27B617B694FF6F0741C407B695B08D5
:100EC4009BB203F007031C43FB68DC600AE03B6849
:100ED4005A08BB681A443B68B2FBF3F39BB21A4648
:100EE400FB68DA6000BF1837BD4690BC704700004D
:100EF40080B584B000AF786039600123FB730023B0
:100F0400BB607868FFF788FF0346002B5CD17B68E1
:100F14001A68304B13403A6851683A68D2681143F2
:100F24003A68126911433A6892690A431A437B6822
:100F34001A603B689B6819467868FFF780FF3B6836
:100F44005B6919467868FFF78DFF7B68224A9342F4
:100F540004D10020FFF782FDB86024E07B681F4ABB
:100F6400934204D11020FFF779FDB8601BE07B6841
:100F74001B4A934204D11220FFF770FDB86012E0BF
:100F84007B68184A934205D14FF44010FFF71EFEC8
:100F9400B86008E07B68144A934204D14FF44000DF
:100FA400FFF714FEB860BB68002B0DD03B681B68CC
:100FB400002B09D00023FB733B689A693B681B68CC
:100FC400B9687868FFF761FFFB7B18461037BD46A8
:100FD40080BD00BFF369FFEF0038014000440040CA
:100FE40000480040004C00400050004080B483B0F2
:100FF40000AF786039607A683B68B2FBF3F3074A64
:10100400013B5360054B00229A60044B05221A6091
:1010140000BF0C37BD465DF8047B704710E000E06C
:1010240080B582B000AF78604FF47A717868FFF7CA
:10103400DDFF00BF0837BD4680BD000080B483B02B
:1010440000AF7860044A7B68136000BF0C37BD466C
:101054005DF8047B704700BF0000002080B485B0B9
:1010640000AF78600023FB817B681A88FB891344F6
:10107400FB817B685A88FB891344FB81FB894233DB
:10108400FB81FB895233FB810023BB600BE07A6850
:10109400BB68134404331B789AB2FB891344FB8165
:1010A400BB680133BB607B685B881A46BB689342AC
:1010B400EDDBFB8918461437BD465DF8047B7047A9
:1010C40080B485B000AF78607B680022C3F8082143
:1010D4007B6800225A807B68002283F804217B68A5
:1010E40000221A800023FB6008E07A68FB6813443E
:1010F400043300221A70FB680133FB60FB68FF2B8A
:10110400F3DD7B680022A3F80C2100BF1437BD4631
:101114005DF8047B7047000090B583B000AF0346D0
:101124003960FB713B6893F80431072B00F2EB80C4
:1011340001A252F823F000BF5D11000877110008E6
:1011440091110008D9110008211200083B1200086F
:10115400671200089D120008FB79422B04D13B68FA
:10116400012283F80421CEE03868FFF7A9FF0023A9
:10117400CAE0FB79522B04D13B68022283F8042194
:10118400C1E03868FFF79CFF0023BDE03B68D3F85B
:101194000831002B0BD1FB799AB23B685A803B682B
:1011A400D3F808315A1C3B68C3F80821ABE03B680C
:1011B4005A88FB799BB21B029BB213449AB23B68D8
:1011C4005A803B68032283F804213B680022C3F859
:1011D400082198E03B68D3F80831002B0BD1FB7948
:1011E4009AB23B681A803B68D3F808315A1C3B68B2
:1011F400C3F8082187E03B681A88FB799BB21B027D
:101204009BB213449AB23B681A803B68042283F869
:1012140004213B680022C3F8082174E0FB79002B09
:1012240004D13B68052283F804216CE03868FFF799
:1012340047FF002368E0FB79002B0DD13B685B88F6
:10124400002B04D13B68072283F804215BE03B6850
:10125400062283F8042156E03868FFF731FF0023A3
:1012640052E03B68D3F80831591C3A68C2F80811B7
:101274003A681344FA791A713B68D3F808313A682A
:10128400528893423ED13B68072283F804213B688D
:101294000022C3F8082135E03B68D3F80831002B5D
:1012A4000CD1FB799AB23B68A3F80C213B68D3F8C4
:1012B40008315A1C3B68C3F8082124E03B68B3F8A2
:1012C4000C21FB799BB21B029BB213449AB23B687C
:1012D400A3F80C213B680022C3F808213B68B3F84B
:1012E4000C413868FFF7BAFE03469C4205D13B68BF
:1012F400002283F80421012306E03868FFF7E0FEAA
:10130400002301E000BF022318460C37BD4690BD00
:1013140080B483B000AF786039607B681B8840F28A
:10132400BB42934201D0002315E07B681B791A0667
:101334007B685B791B041A437B689B791B0213430C
:101344007A68D27913431A463B681A607B681A7A22
:101354003B681A71012318460C37BD465DF8047BBF
:10136400704780B483B000AF786039607B681B88B5
:1013740040F2B342934201D0002311E07B681B7911
:101384001A067B685B791B041A437B689B791B02F2
:1013940013437A68D27913431A463B681A600123CF
:1013A40018460C37BD465DF8047B704780B483B0A3
:1013B40000AF786039607B681B8840F2BC4293427E
:1013C40001D000236DE07B681B791A067B685B798A
:1013D4001B041A437B689B791B0213437A68D279F6
:1013E40013431A463B681A607B681B7A1B021AB2C5
:1013F4007B685B7A1BB213431BB29AB23B689A8038
:101404007B689B7A1B021AB27B68DB7A1BB213439C
:101414001BB29AB23B68DA807B681B7B1A067B6836
:101424005B7B1B041A437B689B7B1B0213437A6818
:10143400D27B13431A463B689A607B681B7C1A066E
:101444007B685B7C1B041A437B689B7C1B021343F5
:101454007A68D27C13431A463B68DA607B681B7D4A
:101464001A067B685B7D1B041A437B689B7D1B0209
:1014740013437A68D27D13431A463B681A617B682A
:101484001B7E1A067B685B7E1B041A437B689B7E6B
:101494001B0213437A68D27E13431A463B685A618F
:1014A400012318460C37BD465DF8047B70470000E5
:1014B40080B485B000AF78607B6803F00703FB60FD
:1014C4000C4BDB68BB60BA684FF6FF031340BB608C
:1014D400FB681A02BB68134343F0BF6343F4003351
:1014E400BB60044ABB68D36000BF1437BD465DF8D7
:1014F400047B704700ED00E080B400AF044BDB6870
:101504001B0A03F007031846BD465DF8047B7047C9
:1015140000ED00E080B483B000AF0346FB7197F99F
:101524000730002B0BDBFB7903F01F02074997F907
:1015340007305B09012000FA02F241F8232000BFC2
:101544000C37BD465DF8047B704700BF00E100E046
:1015540080B483B000AF03463960FB7197F907305C
:10156400002B0ADB3B68DAB20C4997F90730120109
:10157400D2B20B4483F800230AE03B68DAB208498C
:10158400FB7903F00F03043B1201D2B20B441A7629
:1015940000BF0C37BD465DF8047B704700E100E0F6
:1015A40000ED00E080B489B000AFF860B9607A6003
:1015B400FB6803F00703FB61FB69C3F10703042B1A
:1015C40028BF0423BB61FB690433062B02D9FB69E2
:1015D400033B00E000237B614FF0FF32BB6902FA5A
:1015E40003F3DA43BB681A407B699A404FF0FF313A
:1015F4007B6901FA03F3D9437B680B401343184614
:101604002437BD465DF8047B7047000080B400AF0A
:10161400054B1B68044A43F00103136000BFBD4639
:101624005DF8047B704700BF0010024080B400AF37
:10163400064B1B6803F00203022B0CBF012300239B
:10164400DBB21846BD465DF8047B704700100240CB
:1016540080B483B000AF7860074B1B6823F0F802B6
:101664007B68DB00044913430B6000BF0C37BD46A5
:101674005DF8047B704700BF0010024080B483B063
:1016840000AF7860064B5B6823F0030204497B6873
:1016940013434B6000BF0C37BD465DF8047B7047B5
:1016A4000010024080B400AF044B5B6803F00C03ED
:1016B4001846BD465DF8047B704700BF0010024029
:1016C40080B483B000AF7860064B5B6823F0F0020F
:1016D40004497B6813434B6000BF0C37BD465DF87B
:1016E400047B70470010024080B483B000AF786080
:1016F400064B5B6823F4E06204497B6813434B6048
:1017040000BF0C37BD465DF8047B704700100240F3
:1017140080B483B000AF7860064B5B6823F46052FA
:1017240004497B6813434B6000BF0C37BD465DF82A
:10173400047B70470010024080B483B000AF78602F
:101744000A4B1A6B7B681B0E032101FA03F3DB437C
:101754001A407B6823F07F43044913430B6300BFA3
:101764000C37BD465DF8047B704700BF0010024093
:1017740080B400AF054B1B68044A43F080731360C8
:1017840000BFBD465DF8047B704700BF00100240F7
:1017940080B400AF074B1B6803F00073B3F1007F04
:1017A4000CBF01230023DBB21846BD465DF8047B61
:1017B400704700BF0010024080B485B000AFF860ED
:1017C400B9607A600B4B5B6823F47612F968BB68E6
:1017D4000B43084913434B60064BDB6A23F00F02AB
:1017E40004497B681343CB6200BF1437BD465DF8E0
:1017F400047B70470010024080B485B000AF78606D
:10180400084B5A6907497B6813434B61054B5A6976
:101814007B681340FB60FB6800BF1437BD465DF86E
:10182400047B70470010024080B485B000AF78603C
:10183400084BDA6907497B681343CB61054BDA69C6
:101844007B681340FB60FB6800BF1437BD465DF83E
:10185400047B70470010024080B485B000AF78600C
:10186400084B9A6907497B6813438B61054B9A6956
:101874007B681340FB60FB6800BF1437BD465DF80E
:10188400047B70470010024080B485B000AF7860DC
:101894003960134A3B68DBB2023352F823203B68B9
:1018A4001B0CDB4302EA03013B681B0CFB60FB6877
:1018B40093FAA3F3BB60BB68B3FA83F3DBB21A46B3
:1018C4007B6803FA02F206483B68DBB20A43023340
:1018D40040F8232000BF1437BD465DF8047B7047F1
:1018E4000000014080B483B000AF7860064B1B68F1
:1018F40023F0070204497B6813430B6000BF0C37D5
:10190400BD465DF8047B70470020024080B400AF00
:10191400044B1B6803F007031846BD465DF8047BBF
:10192400704700BF0020024080B483B000AF7860ED
:101934007B68042B06D1094B1B68084A43F0040357
:10194400136005E0054B1B68044A23F0040313608D
:1019540000BF0C37BD465DF8047B704710E000E023
:1019640080B483B000AF78607B681B6843F00102E9
:101974007B681A6000BF0C37BD465DF8047B704776
:1019840080B483B000AF78607B685B6823F49042D6
:101994007B685A607B689B6823F02A027B689A60A4
:1019A40000BF0C37BD465DF8047B704780B483B03C
:1019B40000AF78607B681B6843F020027B681A6084
:1019C40000BF0C37BD465DF8047B704780B483B01C
:1019D40000AF78607B689B6823F480627B689A60C0
:1019E40000BF0C37BD465DF8047B704780B489B0F6
:1019F40000AFF860B9607A60FB681A68BB687B6105
:101A04007B6993FAA3F33B613B69B3FA83F3DBB2DB
:101A14005B00032101FA03F3DB431A40BB68FB615B
:101A2400FB6993FAA3F3BB61BB69B3FA83F3DBB23B
:101A34005B00796801FA03F31A43FB681A6000BF7C
:101A44002437BD465DF8047B704780B489B000AF8D
:101A5400F860B9607A60FB68DA68BB687B617B69AF
:101A640093FAA3F33B613B69B3FA83F3DBB25B0004
:101A7400032101FA03F3DB431A40BB68FB61FB69F2
:101A840093FAA3F3BB61BB69B3FA83F3DBB25B00E4
:101A9400796801FA03F31A43FB68DA6000BF24375C
:101AA400BD465DF8047B704780B483B000AF7860B6
:101AB40039607B683A689A6200BF0C37BD465DF8AE
:101AC400047B704780B582B000AF03463960FB7178
:101AD400FB7939681846FFF71FFB03461A46074B84
:101AE4001A70074A3B68104619464FF488731A4621
:101AF40000F056FB00BF0837BD4680BD240000201F
:101B04006800002080B5C2B000AF0120FFF7A4FE3A
:101B14004FF08050FFF788FE0720FFF7C9FC00F064
:101B240053F800F0FFF800F099F81F491F4800F03F
:101B3400AAFA1D48FFF73AFF3B461D4A92E8030004
:101B44001860043319803B4605221946174800F0F3
:101B5400C1FA184B1B78DBB2012BFAD1164B93F860
:101B64000431DBB2002BF4D1134B1B889BB240F23F
:101B7400BB42934208D040F2BC4293420ED040F2A2
:101B8400B342934205D00EE00C490B48FFF7C0FB6B
:101B940009E00B490848FFF7E4FB04E0094906485B
:101BA400FFF704FC00BFD4E70044004030000020ED
:101BB400DC21000824000020680000202800002008
:101BC400200000205000002080B500AF0220FFF765
:101BD40089FEFFF79BFE0346022B01D000F004F9B7
:101BE400FFF714FD00BFFFF721FD0346012BFAD1D7
:101BF4001020FFF72DFD00224FF4E0114FF40040B8
:101C0400FFF7DAFDFFF7B4FD00BFFFF7C1FD0346A0
:101C1400012BFAD10020FFF753FD4FF48060FFF74A
:101C240063FD0020FFF774FD0220FFF727FD00BFCE
:101C3400FFF738FD0346082BFAD10748FFF7FEF9F2
:101C44000548FFF7EDF90420FFF76EFE4FF08050D2
:101C5400FFF772FD00BF80BD00A24A0480B58EB0BC
:101C640000AF07F11C0300221A605A609A60DA6020
:101C74001A615A619A613B1D00221A605A609A6087
:101C8400DA601A615A614FF40030FFF7CDFD4FF46A
:101C94000030FFF7B1FD0C237B600223BB600023FF
:101CA400FB6000233B6100237B610723BB613B1D79
:101CB40019464FF09040FEF7A8FDFFF71DFC0346C0
:101CC400002200211846FFF76DFC03461946262022
:101CD400FFF73EFC2620FFF71DFC4FF4E133FB61C8
:101CE40000233B6200237B620023BB620C23FB6264
:101CF40000233B6300237B6307F11C031946084858
:101D0400FFF7F6F80648FFF761FE0548FFF738FECF
:101D14000348FFF725FE00BF3837BD4680BD00BF2E
:101D24000044004080B58AB000AF07F11C030022D4
:101D34001A605A609A603B1D00221A605A609A60C9
:101D4400DA601A615A614FF40020FFF755FD4FF431
:101D54008000FFF751FD4FF40030FFF74DFD4FF4C5
:101D64008020FFF749FD20214FF09040FFF79CFEB3
:101D74001B490220FFF788FD00224FF40051194847
:101D8400FFF763FE00224FF400511648FFF72EFEC2
:101D94004FF40053FB6100233B62012387F8243096
:101DA400002387F82530022387F8263007F11C0327
:101DB4001846FEF73DFB20237B600123BB60002314
:101DC400FB6000233B6100237B613B1D19464FF000
:101DD4009040FEF71AFD00BF2837BD4680BD00BF06
:101DE4000300F0000008004880B400AF00BFBD4607
:101DF4005DF8047B704780B483B000AF78607B6883
:101E0400DB6903F02003202B01D1012300E0002330
:101E140018460C37BD465DF8047B704780B483B028
:101E240000AF78607B68DB6903F08003802B01D10D
:101E3400012300E0002318460C37BD465DF8047BFF
:101E4400704780B483B000AF78607B681B6803F090
:101E54008003802B01D1012300E0002318460C37B6
:101E6400BD465DF8047B704780B483B000AF7860F2
:101E74007B689B8C9BB2DBB218460C37BD465DF881
:101E8400047B704780B400AF00BFBD465DF8047B9F
:101E9400704780B400AFFEE780B400AFFEE780B4C3
:101EA40000AFFEE780B400AFFEE780B400AF00BF30
:101EB400BD465DF8047B704780B400AF00BFBD46EB
:101EC4005DF8047B704780B400AF00BFBD465DF889
:101ED400047B704780B400AF00BFBD465DF8047B4F
:101EE4007047000080B5C6B000AF1348FFF796FFF7
:101EF4000346002B08D01048FFF7A3FF0346002B2E
:101F040002D00E4800F092F80B48FFF774FF034626
:101F1400002B0CD00848FFF7A7FF034687F81731BA
:101F24003A1D97F8173111461846FFF7CBFD00BF4D
:101F340007F58C77BD4680BD00440040300000208A
:101F440080B400AF084BD3F88830074A43F47003D9
:101F5400C2F88830044B4FF000629A6000BFBD465F
:101F64005DF8047B704700BF00ED00E080B483B0EF
:101F740000AF78607B681B6843F001027B681A60DD
:101F840000BF0C37BD465DF8047B704780B483B056
:101F940000AF78607B681B6843F004027B681A60BA
:101FA40000BF0C37BD465DF8047B704780B483B036
:101FB40000AF78607B681B6843F008027B681A6096
:101FC40000BF0C37BD465DF8047B704780B483B016
:101FD40000AF78607B681B6843F080027B681A60FE
:101FE40000BF0C37BD465DF8047B704780B483B0F6
:101FF40000AF78607B681B6823F080027B681A60FE
:1020040000BF0C37BD465DF8047B704780B483B0D5
:1020140000AF78600B46FB70FB789AB27B681A8538
:1020240000BF0C37BD465DF8047B704780B582B0B5
:1020340000AF78607B68DB68002B10D07B68DB68BE
:102044005A1E7B68DA607B6818687B689B68591C39
:102054007A6891601B781946FFF7D8FF0FE07B6818
:102064001B681846FFF7C2FF7B681B689A697B6888
:102074001B6822F010029A617B6800221A7100BF6B
:102084000837BD4680BD80B582B000AF7860396046
:102094007B683A681A607B6800221A717B680022A8
:1020A4001A747B6800229A617B680022DA617B687B
:1020B4001B681846FFF77AFF7B681B681846FFF712
:1020C40065FF7B681B681846FFF750FF00BF0837A1
:1020D400BD4680BD80B584B000AFF860B9607A6059
:1020E400FB6801221A71FB68BA689A60FB687A6817
:1020F400DA60FB681B681846FFF768FF00BF1037FB
:10210400BD4680BDDFF834D0002103E00C4B5B58A2
:10211400435004310B480C4B42189A42F6D30B4AF5
:1021240002E0002342F8043B094B9A42F9D3FFF73B
:1021340007FF00F011F8FFF7E5FCFEE700000120BF
:1021440004220008000000200400002004000020F5
:1021540078010020FEE7000070B50D4E0D4CA41B65
:10216400A4100025A54209D10B4E0C4C00F024F814
:10217400A41BA4100025A54205D170BD56F8253036
:1021840098470135EEE756F8253098470135F2E7D0
:10219400FC210008FC210008FC21000800220008A2
:1021A40010B5431E0A44914200D110BD11F8014BF1
:1021B40003F8014FF7E70000F8B500BFF8BC08BC0E
:1021C4009E467047F8B500BFF8BC08BC9E467047F1
:1021D400081C3044586C8000616263640A0000008B
:1021E40000000000000000000102030406070809C3
:0821F4000000000001020304D9
:0421FC00B90100081D
:04220000950100083C
:0422040000127A004A
:0400000508002109C5
:00000001FF
